:100000000C94A3000C94C4000C94C4000C94C40081
:100010000C94C4000C946E030C9449030C949D0240
:100020000C94C4000C94C4000C94C4000C94C40040
:100030000C94C4000C94C4000C94C4000C94C40030
:100040000C94C4000C94C4000C94C4000C94C40020
:100050000C94C4000C94C4000C94C4000C94C40010
:100060000C94C4000C94C4000C94C4000C94C40000
:100070000C94C4000C94C4000C94C4000C94C400F0
:100080000C94C4000C94C4000C94C4000C94C400E0
:100090000C94C4000C94C4000C94C4000C94C400D0
:1000A0000C94C4000C94C4000C94C4000C94C400C0
:1000B0000C94C4000C94C4000C94C4000C94C400B0
:1000C0000C94C4000C94C4000C94C4000C94C400A0
:1000D0000C94C4000C94C4000C94C4000C94C40090
:1000E0000C94C400D606D606D606D606D606D60684
:1000F000D6069E06A106A406D606A706AA06AD0643
:10010000D606D606D606D606D606D606D606B00635
:10011000B306B606D606B906BC06BF06D606D60690
:10012000D606D606D606D606D606C206C506C80622
:10013000D606CB06CE06D106D606D606D606D606F7
:10014000D606D606D60611241FBECFEFD1E2DEBFFB
:10015000CDBF00E00CBF13E0A0E0B2E0EEE7FEE1AF
:1001600000E00BBF02C007900D92A831B107D9F78C
:1001700013E0A8E1B3E001C01D92A434B107E1F798
:100180000E9488080C943D0F0C94000086E69EE0C7
:10019000FC013197F1F74098419840E348B9429A01
:1001A00020E038E4F9013197F1F74298FC013197EA
:1001B000F1F74098419848B9429AF9013197F1F71F
:1001C0004298FC013197F1F74098419848B9429A1A
:1001D000F9013197F1F742980197F1F7409841986A
:1001E00080E288B9429AC9010197F1F742980895CF
:1001F00098B19F7098B928B1982F907F922B98B999
:1002000040984198429A20E038E4F9013197F1F79B
:10021000429898B19F7098B998B18295807F982B39
:1002200098B940984198429AC9010197F1F74298CC
:10023000089586E69EE00197F1F788E20E94F800B3
:1002400081E00E94F80086E00E94F8008EE00E94A3
:10025000F80080E80E94F800089598B19F7098B95E
:1002600028B1982F907F922B98B9409A4198429A42
:1002700020E038E4F9013197F1F7429898B19F7086
:1002800098B998B18295807F982B98B9409A4198F7
:10029000429AC9010197F1F74298089580E80E94B7
:1002A000F8000895CF93DF93EC0103C00E942D0165
:1002B000219688818823D1F7DF91CF9108958230EC
:1002C00069F0833018F48130A9F405C0833049F017
:1002D000843081F40BC0862F815805C0862F81544D
:1002E00002C0862F8D560E94F8000895862F8D52E9
:1002F0000E94F80008950F931F93CF93DF938A0114
:10030000E901882311F0662319F40E944E0102C00E
:100310000E945F01C530D10571F4C80160E177E248
:100320000E94F20ECB01C096909333038093320368
:100330000E942D0105C0C430D10511F080E016C027
:10034000C80168EE73E00E94F20ECB0160933403A3
:10035000909335036AE070E00E94F20EC09690938D
:100360004303809342030E942D0181E0C330D105F5
:1003700021F0813011F080E016C0C80164E670E021
:100380000E94F20ECB0160933403909335036AE030
:1003900070E00E94F20EC09690933C0380933B0362
:1003A0000E942D0181E0C230D10521F0813011F091
:1003B00080E016C0C8016AE070E00E94F20ECB0136
:1003C00060933403909335036AE070E00E94F20E6C
:1003D000C09690933A03809339030E942D0181E0E7
:1003E000C130D10511F0813061F4C8016AE070E0DC
:1003F0000E94F20EC09690934103809340030E94A6
:100400002D0126971CF085E40E942D01DF91CF91EC
:100410001F910F910895259A2D9A0895269A2E9A44
:100420000895279A2F9A08951092890090E0A0E0ED
:10043000B0E0BC01CD010E94840C2BE734E14EEE0C
:100440005FE30E94540B20E030E04CE052E40E9455
:10045000270B0E947E0960938800089510928B00FC
:1004600090E0A0E0B0E0BC01CD010E94840C2BE73D
:1004700034E14EEE5FE30E94540B20E030E04CE0AC
:1004800052E40E94270B0E947E0960938A0008951F
:1004900010928D0090E0A0E0B0E0BC01CD010E9480
:1004A000840C2BE734E14EEE5FE30E94540B20E016
:1004B00030E04CE052E40E94270B0E947E096093DA
:1004C0008C00089583E0809389008FEF80938800EB
:1004D000089583E080938B008FEF80938A000895C6
:1004E00083E080938D008FEF80938C0008958FECD4
:1004F00081B912B86A9A729A089592B19F73807CFA
:10050000892B82B9089582B18F73806482B908956E
:1005100082B18F73806882B9089582B18F7382B976
:1005200008956E98769A0895F894EAE6F0E080814E
:1005300080628083EE9A789408951F920F920FB68E
:100540000F9211248F939F93AF93BF9380912A03AF
:1005500090912B03A0912C03B0912D030196A11D26
:10056000B11D80932A0390932B03A0932C03B09387
:100570002D03BF91AF919F918F910F900FBE0F9060
:100580001F90189510922A0310922B0310922C039F
:1005900010922D03FFCF22B12F73206422B90E9445
:1005A000C202089522B12F73206822B90E94C202AC
:1005B000089587B1876F87B988B1807888B9089521
:1005C00010BA11BA109207011092080108953B9ACF
:1005D0004398089586B1886088B9089586B1877F69
:1005E00088B9089581B18F6081B982B1807F82B965
:1005F000EAE0F1E0808188618083EBE0F1E08081D6
:100600008861808308956C98749A08956D98759A9E
:10061000089587B1876F87B988B1807888B910BA93
:1006200011BA10920701109208018FEC81B912B82B
:100630006A9A729A81B18F6081B982B1807F82B9E2
:10064000EAE0F1E0808188618083EBE0F1E0808185
:10065000886180833B9A43986C98749A6D98759AD8
:10066000259A2D9A269A2E9A279A2F9A0895F894C9
:10067000EAE6F0E0808182608083EC9A78940895C5
:10068000F894EAE6F0E0808188608083ED9A7894BF
:1006900008951F920F920FB60F9211248F939F937C
:1006A000AF93BF938091220390912303A0912403E1
:1006B000B09125030196A11DB11D80932203909353
:1006C0002303A0932403B0932503BF91AF919F917F
:1006D0008F910F900FBE0F901F9018951F920F9241
:1006E0000FB60F9211248F939F93AF93BF93809176
:1006F0001E0390911F03A0912003B0912103019646
:10070000A11DB11D80931E0390931F03A09320038E
:10071000B0932103BF91AF919F918F910F900FBE26
:100720000F901F901895E1E2F1E010829FEF9093F7
:10073000250121E0209324011092290190932801A2
:1007400010922B0190932A0110922D0190932C016D
:1007500089EA809320018BE08083E1E8F0E0108259
:100760008CEF809385002093840083E08093890040
:100770009093880080938B0090938A0080938D00E3
:1007800090938C0080938700909386008BEA8093EF
:100790008000109282008CE080830895EAE7F0E008
:1007A000108210927B0080E280937C0080E880BF02
:1007B00086E880830895982F883018F088E0809329
:1007C0007B009770906290937C0080917A008064A7
:1007D00080937A0080917A0084FFFCCF8091790029
:1007E00090917A00906190937A0010927B00089526
:1007F0000F931F93182F062F842F0E94DB03482F7F
:1008000080933603812F602F50E023E030E00E9478
:100810007B011F910F9108958093280160932A0115
:10082000089592B1907F8F70892B82B9089582B11B
:10083000807F866082B9089582B1807F82B90895F1
:1008400082B1807F896082B9089582B1807F8A6099
:1008500082B9089582B1807F856082B9089582B19E
:10086000807F846082B9089582B1807F826082B97E
:10087000089582B1807F816082B9089582B1807FBE
:10088000886082B90895EF92FF920F931F93A0E0C2
:10089000B0E0BC01CD010E94840C28E431EE42E8B6
:1008A00050E40E94540B0E947E097B0100E010E09E
:1008B0001092220310922303109224031092250316
:1008C00010921E0310921F03109220031092210316
:1008D0008091220390912303A0912403B0912503DA
:1008E00020911E0330911F0340912003509121035A
:1008F0008E159F05A007B10728F42E153F05400768
:10090000510730F31F910F91FF90EF900895A0E0F1
:10091000B0E0BC01CD010E94840C25EE30ED4AEA26
:1009200050E40E94540B0E947E099B01AC0110927E
:100930002203109223031092240310922503809126
:10094000220390912303A0912403B091250328173B
:1009500039074A075B0798F782B1807F82B908950B
:1009600022B1207F266022B90E948704089522B117
:10097000207F296022B90E948704089522B1207F38
:10098000256022B90E944304089522B1207F2A6085
:1009900022B90E944304089522B1207F246022B925
:1009A000880F991F0E944304089522B1207F22607E
:1009B00022B9880F991F0E944304089522B1207F15
:1009C000216022B9880F991F0E944304089522B123
:1009D000207F286022B9880F991F0E944304089540
:1009E000F8940E940903EAE7F0E0108210927B007D
:1009F00080E280937C0080E880BF86E880830E944C
:100A00009303F894EAE6F0E0808182608083EC9AB8
:100A10007894F894EAE6F0E0808188608083ED9A2B
:100A200078947894089583E00E94DB0380931903FF
:100A300082E00E94DB0380931A0381E00E94DB03C3
:100A400080931B034091190381E061E050E023E0B3
:100A500030E00E947B0140911A0381E065E050E0A4
:100A600023E030E00E947B0140911B0381E069E0BC
:100A700050E023E030E00E947B010895F8946C98E8
:100A8000749A6D98759A6E98769AF894EAE6F0E002
:100A9000808182608083EC9A7894F894EAE6F0E0B2
:100AA000808188608083ED9A7894F894EAE6F0E09B
:100AB000808180628083EE9A7894789408959091F2
:100AC0001A03913290F080911903803270F4809172
:100AD0001B03803250F482E88093280180932A011E
:100AE00082E061E042E850E010C080911903813259
:100AF000C8F09032B8F489E68093280182E88093A8
:100B00002A0182E061E049E650E023E030E00E9403
:100B10007B0182E065E042E850E023E030E00E94A3
:100B20007B01089580911B038132C0F09032B0F4B4
:100B300082E88093280189E680932A0182E061E0BF
:100B400042E850E023E030E00E947B0182E065E073
:100B500049E650E023E030E00E947B010895809157
:100B60001903813238F480911B03813218F420E09C
:100B700030E00AC090E080911A03813208F491E0DD
:100B800081E09827292F30E0C901089582E390E0A1
:100B90000E94B00482B1807F82B982B1807F85607B
:100BA00082B980ED97E020E731E0F9013197F1F764
:100BB0000197D9F70E94130506C00E94130582B160
:100BC000807F856082B9809119038034B0F382B14F
:100BD000807F82B980ED97E020E731E0F90131971D
:100BE000F1F70197D9F70E94130582B1807F8660E3
:100BF00082B9089582E390E00E94B00482B1807FC0
:100C000082B982B1807F8A6082B980ED97E020E767
:100C100031E0F9013197F1F70197D9F70E941305F7
:100C200006C00E94130582B1807F8A6082B98091DC
:100C30001B038034B0F382B1807F82B980ED97E0EE
:100C400020E731E0F9013197F1F70197D9F70E94D8
:100C5000130582B1807F866082B908958331910542
:100C6000B9F18431910524F4419709F059C007C0C6
:100C700084319105B9F0499709F052C04EC0809176
:100C80001903813228F480911B03813208F448C093
:100C900080911A03813208F443C00E9413050E9418
:100CA0005F05EDCF81E090E09093270380932603CA
:100CB00080910E0290910F028531910539F18731B3
:100CC0009105F9F088319105B1F0469749F50DC0CD
:100CD00081E090E0909329038093280380910E0295
:100CE00090910F028531910519F487E190E010C0D1
:100CF0008731910519F486E190E00AC088319105A9
:100D000019F485E190E004C0469751F488E190E041
:100D100090930F0280930E02089582B1807F82B972
:100D200008959C01FC0181339105F0F5EE58FF4FC9
:100D3000EE0FFF1F0590F491E02D19942DE030E0A7
:100D400035C02CE030E032C02BE030E02FC029E08D
:100D500030E02CC028E030E029C027E030E026C099
:100D60002BE130E023C02AE130E020C029E130E06F
:100D70001DC027E130E01AC026E130E017C025E1B0
:100D800030E014C029E230E011C028E230E00EC0AB
:100D900027E230E00BC025E230E008C024E230E07A
:100DA00005C023E230E002C02FEF3FEFC9010895F4
:100DB00082B1807F82B90E94130580911A0381322B
:100DC00028F48AE090E00E94BE04F2CF089582B138
:100DD000807F82B90E94130580911A03813228F422
:100DE0008AE090E00E94C504F2CF0895CF93DF938C
:100DF0001092380310923703C0E7D1E012C00E946E
:100E0000140284EF91E0FE013197F1F70197D9F7D1
:100E1000809137039091380305969093380380931F
:100E200037038091370390913803823391053CF367
:100E300080E00E942E02DF91CF910895CF93DF933F
:100E400080912E0390912F03019690932F0380930E
:100E50002E0382B18F73806482B988EC92E320E71D
:100E600031E0F9013197F1F70197D9F782B18F732A
:100E700082B986B1886088B988EE93E020E731E0D6
:100E8000F9013197F1F70197D9F786B1877F88B9D2
:100E900080E395E720E731E0F9013197F1F7019719
:100EA000D9F782E390E09093380380933703C0E74B
:100EB000D1E012C00E9414028CE291E0FE01319751
:100EC000F1F70197D9F7809137039091380305978F
:100ED00090933803809337038091370390913803C0
:100EE000181619063CF386B1886088B988EE93E03D
:100EF00020E731E0F9013197F1F70197D9F786B191
:100F0000877F88B980E395E720E731E0F9013197E1
:100F1000F1F70197D9F71092380310923703C0E721
:100F2000D1E012C00E942E028CE291E0FE013197C6
:100F3000F1F70197D9F7809137039091380305961F
:100F4000909338038093370380913703909138034F
:100F50008E3191053CF386B1886088B988EE93E0C4
:100F600020E731E0F9013197F1F70197D9F786B120
:100F7000877F88B980E395E720E731E0F901319771
:100F8000F1F70197D9F782B18F73806882B988E64B
:100F900092E420E731E0F9013197F1F70197D9F7B1
:100FA00082B18F7382B986B1886088B988EE93E088
:100FB00020E731E0F9013197F1F70197D9F786B1D0
:100FC000877F88B980E395E720E731E0F901319721
:100FD000F1F70197D9F782B18F73806482B980EA03
:100FE0009FE020E731E0F9013197F1F70197D9F758
:100FF00082B18F7382B986B1886088B988EE93E038
:1010000020E731E0F9013197F1F70197D9F786B17F
:10101000877F88B980E395E720E731E0F9013197D0
:10102000F1F70197D9F78EE190E090933803809320
:101030003703C0E7D1E012C00E942E028CE291E09B
:10104000FE013197F1F70197D9F78091370390911D
:1010500038030597909338038093370380913703C3
:1010600090913803181619063CF386B1886088B948
:1010700088EE93E020E731E0F9013197F1F701972D
:10108000D9F786B1877F88B980E395E720E731E01B
:10109000F9013197F1F70197D9F7109238031092BF
:1010A0003703C0E7D1E012C00E9414028CE291E045
:1010B000FE013197F1F70197D9F7809137039091AD
:1010C0003803059690933803809337038091370354
:1010D00090913803823391053CF386B1886088B9DA
:1010E00080E197E220E731E0F9013197F1F70197CC
:1010F000D9F786B1877F88B980E395E720E731E0AB
:10110000F9013197F1F70197D9F7DF91CF91089560
:101110001F930E94F0040E943E050E94F6060E9462
:10112000C6000E94190182B1807F866082B988EC76
:101130008093280180932A0182E061E046E950E033
:1011400023E030E00E947B0182E065E046E950E068
:1011500023E030E00E947B0140911C0350911D036D
:1011600082E069E022E030E00E947B0140910E02C3
:1011700050910F0282E06DE023E030E00E947B019D
:1011800012E80E9413050E945F05809119038132C5
:1011900028F480911B03813208F45EC080911A0309
:1011A000813208F459C082B1807F82B90E94130550
:1011B00020911C0330911D03F901EE0FFF1FE05039
:1011C000FE4F808191812F5F3F4F30931D0320930D
:1011D0001C030E942E0640911C0350911D0382E0C7
:1011E00069E022E030E00E947B0140910E025091C4
:1011F0000F0282E06DE023E030E00E947B0140912D
:1012000026035091270381E06DE021E030E00E9449
:101210007B01409128035091290381E06FE021E098
:1012200030E00E947B011093280110932A018091E5
:10123000260390912703019779F0809128039091DC
:101240002903019749F082B1807F82B90E941E076D
:1012500082B1807F866082B98091260390912703B6
:10126000019711F582E390E00E94B70482B1807F7C
:1012700082B982E390E00E94BE040E94D80682B147
:10128000807F866082B91093280110932A01109202
:1012900027031092260382B1807F82B90E941E0725
:1012A00082B1807F866082B9809128039091290362
:1012B000019709F066CF82E390E00E94B70482B103
:1012C000807F82B982E390E00E94C5040E94E70615
:1012D00082B1807F866082B91093280110932A0121
:1012E000109229031092280382B1807F82B90E9454
:1012F0001E0782B1807F866082B943CFEF92FF9252
:101300000F931F937B018C0120E030E040E05FE40D
:101310000E94000C88238CF0C801B70120E030E067
:1013200040E05FE40E94F60A0E94300C9B01AC0191
:10133000205030404040504806C0C801B7010E94CC
:10134000300C9B01AC01B901CA011F910F91FF90B4
:10135000EF900895A0E0B0E0E0EBF9E00C94060F08
:10136000DC012B01FA019C91923008F439C1EB01A8
:101370008881823008F433C1943069F4843009F0F4
:101380002FC111969C9111978981981709F428C152
:10139000A0E1B2E025C1843009F421C18230A9F472
:1013A000923009F01DC19A01AD0188E0EA0109906F
:1013B000AE01E90109929E018150C1F7E2018981E4
:1013C00011969C918923818308C1923009F407C149
:1013D00012962D903C901397EB018A819B81149675
:1013E000AD90BD90CD90DC901797EC80FD800E8184
:1013F0001F819101281B390BB90137FF04C06627F3
:101400007727621B730B603271050CF061C01216F6
:1014100013066CF537014801062E04C09694879494
:10142000779467940A94D2F721E030E040E050E0EE
:1014300004C0220F331F441F551F6A95D2F7215055
:101440003040404050402E213F2140235123211560
:1014500031054105510521F021E030E040E050E048
:1014600079018A01E628F728082919293CC0232B8D
:10147000D1F1260E371E35014601062E04C0969482
:101480008794779467940A94D2F721E030E040E0A3
:1014900050E004C0220F331F441F551F6A95D2F736
:1014A00021503040404050402A213B214C215D21B9
:1014B000211531054105510521F021E030E040E0E2
:1014C00050E059016A01A628B728C828D9280BC0BE
:1014D000821593052CF01C01AA24BB24650103C0CE
:1014E000EE24FF24870111969C91D20111968C91D4
:1014F000981709F445C0992339F0A80197012A19D2
:101500003B094C095D0906C0A60195012E193F094A
:10151000400B510B57FD08C0118233822282248375
:101520003583468357831DC081E0818333822282C5
:1015300088279927DC01821B930BA40BB50B8483AE
:101540009583A683B7830DC0220F331F441F551FF9
:1015500024833583468357838281938101979383C4
:1015600082832481358146815781DA01C90101973F
:10157000A109B1098F5F9F4FAF4FBF4328F30BC045
:10158000918333822282EA0CFB1C0C1D1D1DE48218
:10159000F5820683178383E0808324813581468129
:1015A000578157FF1AC0C901AA2797FDA095BA2FE6
:1015B00081709070A070B0705695479537952795BB
:1015C000822B932BA42BB52B84839583A683B7837F
:1015D00082819381019693838283DF0101C0D201CE
:1015E000CD01CDB7DEB7E2E10C94220FA0E2B0E06E
:1015F000ECEFFAE00C94120F69837A838B839C835F
:101600002D833E834F835887E9E0EE2EF12CEC0EBC
:10161000FD1ECE010196B7010E94210E8E010F5EC4
:101620001F4FCE010596B8010E94210E8A8991E0D4
:1016300089278A8BC701B801AE01475E5F4F0E94C0
:10164000AA090E944C0DA096E6E00C942E0FA0E291
:10165000B0E0EDE2FBE00C94120F69837A838B8398
:101660009C832D833E834F835887F9E0EF2EF12C26
:10167000EC0EFD1ECE010196B7010E94210E8E01D7
:101680000F5E1F4FCE010596B8010E94210EC701C3
:10169000B801AE01475E5F4F0E94AA090E944C0D3F
:1016A000A096E6E00C942E0FA8E1B0E0EAE5FBE09E
:1016B0000C940E0F69837A838B839C832D833E83E6
:1016C0004F835887B9E0EB2EF12CEC0EFD1ECE01B6
:1016D0000196B7010E94210E8E010F5E1F4FCE01B1
:1016E0000596B8010E94210E2985223008F47EC09B
:1016F0003989323010F4B8017CC08A859A898927EB
:101700008A87243011F0223031F4231709F06EC09B
:1017100060E172E06EC0343039F41D861E861F868B
:10172000188A1C861B8604C0323021F484E0898725
:10173000B7015FC02B853C858B899C89281B390BA1
:101740003C872B87ED84FE840F851889AD88BE8881
:10175000CF88D88CEA14FB040C051D0540F4EE0C70
:10176000FF1C001F111F215030403C872B8720E0B9
:1017700030E040E050E080E090E0A0E0B0E460E0E5
:1017800070E0EA14FB040C051D0540F0282B392BF2
:101790004A2B5B2BEA18FB080C091D09B695A79587
:1017A00097958795EE0CFF1C001F111F6F5F7F4FF1
:1017B0006F31710531F7DA01C9018F779070A07030
:1017C000B07080349105A105B10561F427FD0AC010
:1017D000E114F1040105110529F0205C3F4F4F4F42
:1017E0005F4F20782D873E874F87588BBE01675FFC
:1017F0007F4FCB010E944C0D6896EAE00C942A0FB3
:10180000A8E1B0E0E6E0FCE00C94120F69837A8373
:101810008B839C832D833E834F83588789E0E82EFA
:10182000F12CEC0EFD1ECE010196B7010E94210E97
:101830008E010F5E1F4FCE010596B8010E94210E4A
:101840008985823040F08989823028F0C701B8014B
:101850000E94990E01C08FEF6896E6E00C942E0F5F
:10186000ACE0B0E0E6E3FCE00C94160F69837A8309
:101870008B839C83CE010196BE016B5F7F4F0E94DC
:10188000210E8D81823061F1823050F1843021F45B
:101890008E81882351F12EC02F81388537FD20C0DD
:1018A0006E812F3131051CF06623F9F023C08EE1E3
:1018B00090E0821B930B29853A854B855C8504C09B
:1018C00056954795379527958A95D2F76623B1F0B7
:1018D00050954095309521953F4F4F4F5F4F0EC02B
:1018E00020E030E040E050E009C02FEF3FEF4FEF45
:1018F0005FE704C020E030E040E050E8B901CA01F1
:101900002C96E2E00C94320FA8E0B0E0EAE8FCE0AC
:101910000C940E0F7B018C016115710581059105F9
:1019200019F482E0898360C083E089838EE1C82E48
:10193000D12CDC82CB82ED82FE820F831887C80116
:10194000B7010E94FD0CFC013197F7FF3BC0222735
:1019500033272E1B3F0B57016801022E04C0D6947B
:10196000C794B794A7940A94D2F740E050E060E09F
:1019700070E081E090E0A0E0B0E004C0880F991F23
:10198000AA1FBB1F2A95D2F70197A109B1098E2181
:101990009F21A023B1230097A105B10521F041E0CB
:1019A00050E060E070E04A295B296C297D294D8375
:1019B0005E836F8378878EE190E08E1B9F0B9C8304
:1019C0008B8312C0309781F00E2E04C0EE0CFF1CEA
:1019D000001F111F0A94D2F7ED82FE820F83188731
:1019E000CE1ADF0ADC82CB821A82CE0101960E94D7
:1019F0004C0D2896EAE00C942A0FEF92FF920F9379
:101A00001F937B018C0180E0E81680E0F80681E0FE
:101A1000080780E0180788F48FEFE816F104010545
:101A2000110531F028F088E090E0A0E0B0E017C0A8
:101A300080E090E0A0E0B0E012C080E0E81680E036
:101A4000F80680E0080781E0180728F088E190E0B8
:101A5000A0E0B0E004C080E190E0A0E0B0E020E2CF
:101A600030E040E050E0281B390B4A0B5B0B04C010
:101A700016950795F794E7948A95D2F7F701E85EF3
:101A8000FD4F8081281B310941095109C9011F916E
:101A90000F91FF90EF900895DF92EF92FF920F93D6
:101AA0001F93FC01E480F58006811781D18080813D
:101AB000823048F480E090E0A0E1B0E0E82AF92A22
:101AC0000A2B1B2BA5C0843009F49FC0823021F45F
:101AD000EE24FF24870105C0E114F104010511057E
:101AE00019F4E0E0F0E096C0628173819FEF623804
:101AF00079070CF05BC022E83FEF261B370B2A3139
:101B000031052CF020E030E040E050E02AC0B80180
:101B1000A701022E04C076956795579547950A94BC
:101B2000D2F781E090E0A0E0B0E004C0880F991FF8
:101B3000AA1FBB1F2A95D2F70197A109B1098E21CF
:101B40009F21A023B1230097A105B10521F081E0D9
:101B500090E0A0E0B0E09A01AB01282B392B4A2B92
:101B60005B2BDA01C9018F779070A070B070803460
:101B70009105A105B10539F427FF09C0205C3F4F4D
:101B80004F4F5F4F04C0215C3F4F4F4F5F4FE0E02E
:101B9000F0E02030A0E03A07A0E04A07A0E45A07AE
:101BA00010F0E1E0F0E079018A0127C060387105AA
:101BB00064F5FB01E158FF4FD801C7018F779070A2
:101BC000A070B07080349105A105B10539F4E7FE2D
:101BD0000DC080E490E0A0E0B0E004C08FE390E0AE
:101BE000A0E0B0E0E80EF91E0A1F1B1F17FF05C09A
:101BF00016950795F794E794319687E01695079523
:101C0000F794E7948A95D1F705C0EE24FF24870165
:101C1000EFEFF0E06E2F679566276795902F9F771F
:101C2000D794DD24D7948E2F8695492F462B582F95
:101C30005D29B701CA011F910F91FF90EF90DF90CE
:101C40000895FC01DB01408151812281622F6F7771
:101C500070E0221F2227221F9381892F880F822B59
:101C6000282F30E0991F9927991F11969C9311975F
:101C700021153105A9F5411551056105710511F4CD
:101C800082E037C082E89FEF13969C938E93129761
:101C90009A01AB0167E0220F331F441F551F6A955D
:101CA000D1F783E08C930DC0220F331F441F551FC3
:101CB00012968D919C911397019713969C938E93F6
:101CC0001297203080E0380780E0480780E458070A
:101CD00058F314962D933D934D935C931797089565
:101CE0002F3F310579F4411551056105710519F44E
:101CF00084E08C93089564FF03C081E08C9312C04C
:101D00001C9210C02F57304013963C932E9312977D
:101D100083E08C9387E0440F551F661F771F8A95D9
:101D2000D1F7706414964D935D936D937C931797E0
:101D300008951F93DC01FB019C91923008F447C089
:101D40008081823008F443C0943051F411961C9184
:101D5000843099F58181682F70E0611B71093FC063
:101D6000843021F0923031F48230B9F181818823BE
:101D700089F12DC011961C9111978230F1F081816B
:101D80001817D9F412962D913C9113978281938163
:101D90008217930794F028173907BCF014968D9199
:101DA0009D910D90BC91A02D248135814681578154
:101DB000281739074A075B0718F4112341F00AC0B6
:101DC00082179307A407B50740F4112319F061E0C7
:101DD00070E005C06FEF7FEF02C060E070E0CB0104
:101DE0001F910895AA1BBB1B51E107C0AA1FBB1F6F
:101DF000A617B70710F0A61BB70B881F991F5A9597
:101E0000A9F780959095BC01CD0108952F923F923E
:101E10004F925F926F927F928F929F92AF92BF92FA
:101E2000CF92DF92EF92FF920F931F93CF93DF93A6
:101E3000CDB7DEB7CA1BDB0B0FB6F894DEBF0FBE03
:101E4000CDBF19942A88398848885F846E847D8440
:101E50008C849B84AA84B984C884DF80EE80FD8052
:101E60000C811B81AA81B981CE0FD11D0FB6F894C8
:0E1E7000DEBF0FBECDBFED010895F894FFCF89
:101E7E0011001100110011001400110019001500BD
:101E8E000000000000000000000102020303030333
:101E9E0004040404040404040505050505050505EC
:101EAE0005050505050505050606060606060606CC
:101EBE0006060606060606060606060606060606B4
:101ECE00060606060606060607070707070707079C
:101EDE000707070707070707070707070707070784
:101EEE000707070707070707070707070707070774
:101EFE000707070707070707070707070707070764
:101F0E00070707070707070708080808080808084B
:101F1E000808080808080808080808080808080833
:101F2E000808080808080808080808080808080823
:101F3E000808080808080808080808080808080813
:101F4E000808080808080808080808080808080803
:101F5E0008080808080808080808080808080808F3
:101F6E0008080808080808080808080808080808E3
:101F7E0008080808080808080808080808080808D3
:081F8E0008080808080808080B
:00000001FF
