:100000000C94B3000C94D4000C94D4000C94D40041
:100010000C94D4000C94D4000C94D4000C94D40010
:100020000C94D4000C94D4000C94D4000C94D40000
:100030000C94D4000C94D4000C94D4000C94D400F0
:100040000C94D4000C94D4000C94D4000C94D400E0
:100050000C94D4000C94D4000C94D4000C94D400D0
:100060000C94D4000C94D4000C94D4000C94D400C0
:100070000C94D4000C94D4000C94D4000C94D400B0
:100080000C94D4000C94D4000C94D4000C94D400A0
:100090000C94D4000C94D4000C94D4000C94D40090
:1000A0000C94D4000C94D4000C94D4000C94D40080
:1000B0000C94D4000C94D4000C94D4000C94D40070
:1000C0000C94D4000C94D4000C94D4000C94D40060
:1000D0000C94D4000C94D4000C94D4000C94D40050
:1000E0000C94D40007634236B79BD8A71A396856D8
:1000F00018AEBAAB558C1D3CB7CC5763BD6DEDFD4A
:10010000753EF6177231BF000000803F0800000006
:10011000BE922449123EABAAAA2ABECDCCCC4C3EFC
:1001200000000080BEABAAAAAA3E00000000BF00EB
:100130000000803F0000000000084178D3BB4387E7
:10014000D1133D190E3CC3BD4282AD2B3E68EC82FB
:1001500076BED98FE1A93E4C80EFFFBE01C4FF7F80
:100160003F000000000011241FBECFEFD1E2DEBF30
:10017000CDBF00E00CBF13E0A0E0B2E0EAE1F7E29F
:1001800000E00BBF02C007900D92A231B107D9F772
:1001900014E0A2E1B3E001C01D92A831B107E1F77C
:1001A0000E9401080C948B130C94000086E69EE0DC
:1001B000FC013197F1F74098419840E348B9429AE1
:1001C00020E038E4F9013197F1F74298FC013197CA
:1001D000F1F74098419848B9429AF9013197F1F7FF
:1001E0004298FC013197F1F74098419848B9429AFA
:1001F000F9013197F1F742980197F1F7409841984A
:1002000080E288B9429AC9010197F1F742980895AE
:1002100098B19F7098B928B1982F907F922B98B978
:1002200040984198429A20E038E4F9013197F1F77B
:10023000429898B19F7098B998B18295807F982B19
:1002400098B940984198429AC9010197F1F74298AC
:10025000089586E69EE00197F1F788E20E94080182
:1002600081E00E94080186E00E9408018EE00E9461
:10027000080180E80E940801089598B19F7098B91C
:1002800028B1982F907F922B98B9409A4198429A22
:1002900020E038E4F9013197F1F7429898B19F7066
:1002A00098B998B18295807F982B98B9409A4198D7
:1002B000429AC9010197F1F74298089580E80E9497
:1002C00008010895CF93DF93EC0103C00E943D0124
:1002D000219688818823D1F7DF91CF9108958230CC
:1002E00069F0833018F48130A9F405C0833049F0F7
:1002F000843081F40BC0862F815805C0862F81542D
:1003000002C0862F8D560E9408010895862F8D52B7
:100310000E94080108950F931F93CF93DF938A01E2
:10032000E901882311F0662319F40E945E0102C0DE
:100330000E946F01C530D10571F4C80160E177E218
:100340000E94C910CB01C09690933303809332036F
:100350000E943D0105C0C430D10511F080E016C0F7
:10036000C80168EE73E00E94C910CB0160933803A6
:10037000909339036AE070E00E94C910C096909390
:100380001704809316040E943D0181E0C330D1051B
:1003900021F0813011F080E016C0C80164E670E001
:1003A0000E94C910CB0160933803909339036AE02F
:1003B00070E00E94C910C0969093100480930F04BF
:1003C0000E943D0181E0C230D10521F0813011F061
:1003D00080E016C0C8016AE070E00E94C910CB013D
:1003E00060933803909339036AE070E00E94C9106B
:1003F000C09690934603809345030E943D0181E09F
:10040000C130D10511F0813061F4C8016AE070E0BB
:100410000E94C910C09690931504809314040E9402
:100420003D0126971CF085E40E943D01DF91CF91AC
:100430001F910F91089580911203909113030895D5
:100440008091140390911503089580913D0390E0ED
:10045000089590932F0380932E0370933C03609331
:100460003B03089580933D03089520912E0330911E
:100470002F0321503040821793071CF020E030E01A
:100480000DC020E080913B0390913C0301976817D9
:1004900079070CF021E081E0282730E0C9010895B8
:1004A00040911203509113032091140330911503CE
:1004B00080913D03882319F42F5F3F4F0EC0813098
:1004C00019F44F5F5F4F09C0823019F4215030405A
:1004D00004C0833011F441505040509313034093B3
:1004E0001203309315032093140381E090E00895E4
:1004F0008D30910519F420E030E02EC08B3091054D
:1005000059F480913D038823B1F0813081F082302D
:1005100051F08330F9F415C08C309105A9F4809125
:100520003D03882311F483E007C0833011F482E097
:1005300003C0823021F481E080933D030BC0813001
:1005400049F410923D0306C00A9721F40E9450021C
:100550009C0102C021E030E0C9010895EF92FF92B2
:100560000F931F93CF93DF937B018C01C0E0D0E00A
:100570000CC0F801819191918F010E94780201973E
:1005800019F020E030E006C02196CE15DF058CF38F
:1005900021E030E0C901DF91CF911F910F91FF90D1
:1005A000EF900895EF92FF920F931F93CF93DF93F5
:1005B0008091120390911303181619060CF04DC088
:1005C00080913D03833079F1882339F48CE090E009
:1005D0000E9478028CE090E01FC08130A9F48CE08A
:1005E00090E00E9478020CE010E010934803009322
:1005F00047038CE090E00E94780210934A03009336
:10060000490302E010E011C0823069F48BE090E011
:100610000E9478028BE090E0909348038093470318
:1006200001E010E002C000E010E0E801CC0FDD1FA7
:10063000C95BDC4F0AC08AE090E00E9478028AE041
:1006400090E0899399930F5F1F4F809112039091CF
:100650001303181619067CF350C0892B19F400E017
:1006600010E04BC080913D03813079F1882339F44B
:100670008BE090E00E9478028BE090E008C082302E
:1006800069F48CE090E00E9478028CE090E0909316
:1006900048038093470301E010E019C08330A9F4B8
:1006A0008CE090E00E9478020CE010E01093480388
:1006B000009347038CE090E00E94780210934A0375
:1006C0000093490302E010E002C000E010E0E801FE
:1006D000CC0FDD1FC95BDC4F0AC08AE090E00E94AE
:1006E00078028AE090E0899399930F5F1F4F809181
:1006F00012039091130397FDF0CF80911403909112
:100700001503181619060CF059C080913D0382306C
:10071000E9F18823E1F48CE090E00E947802F8018E
:10072000EE0FFF1FE95BFC4F8CE0E82EF12CF1820D
:10073000E0820F5F1F4F8CE090E00E947802F8018A
:10074000EE0FFF1FE95BFC4FF182E0821DC081309C
:1007500061F48BE090E00E947802F801EE0FFF1F39
:10076000E95BFC4F8BE090E00DC0833079F48CE0C6
:1007700090E00E947802F801EE0FFF1FE95BFC4F4A
:100780008CE090E0918380830F5F1F4FE801CC0FD6
:10079000DD1FC95BDC4F0AC08AE090E00E9478024E
:1007A0008AE090E0899399930F5F1F4F8091140323
:1007B00090911503181619067CF35AC0892B09F479
:1007C00057C080913D038823E9F1813061F48CE0CA
:1007D00090E00E947802F801EE0FFF1FE95BFC4FEA
:1007E0008CE090E02BC08230E1F48CE090E00E943D
:1007F0007802F801EE0FFF1FE95BFC4F3CE0E32EAF
:10080000F12CF182E0820F5F1F4F8CE090E00E949C
:100810007802F801EE0FFF1FE95BFC4FF182E082E6
:100820000FC0833079F48BE090E00E947802F801E9
:10083000EE0FFF1FE95BFC4F8BE090E0918380831C
:100840000F5F1F4FE801CC0FDD1FC95BDC4F0AC0F3
:100850008AE090E00E9478028AE090E08993999380
:100860000F5F1F4F809114039091150397FDF0CFF8
:10087000C801DF91CF911F910F91FF90EF900895E4
:1008800081E080933D03089587B1876F87B988B170
:10089000807888B9089510BA11BA109207011092A1
:1008A0000801089581B18F6081B982B1807F82B9DA
:1008B000EAE0F1E0808188618083EBE0F1E0808113
:1008C0008861808308953B9A4398089586B1886033
:1008D00088B9089586B1877F88B908956C98749A0D
:1008E00008956D98759A0895F894EAE6F0E080818D
:1008F00082608083EC9A78940895F894EAE6F0E0B8
:10090000808188608083ED9A78940895E1E2F1E037
:1009100010829FEF9093250181E080932401109233
:1009200029019093280110922B0190932A01109293
:100930002D0190932C0189EA809320018BE0808324
:100940000895EAE7F0E0108210927B0080E2809345
:100950007C0080E880BF86E880830895982F8830E7
:1009600018F088E080937B009770906290937C00F1
:1009700080917A00806480937A0080917A0084FF6D
:10098000FCCF8091790090917A00906190937A00E9
:1009900010927B0008950F931F93182F062F842F1A
:1009A0000E94AE04482F80933A03812F602F50E0BD
:1009B00023E030E00E948B011F910F9108958093F6
:1009C000280160932A01089592B1907F8F70892B3E
:1009D00082B9089582B1807F866082B9089582B11C
:1009E000807F82B9089582B1807F896082B908953D
:1009F00082B1807F8A6082B9089582B1807F8560EC
:100A000082B9089582B1807F846082B9089582B1ED
:100A1000807F826082B9089582B1807F816082B9CF
:100A2000089582B1807F886082B90895EF92FF9225
:100A30000F931F93A0E0B0E0BC01CD010E945B0EBC
:100A400028E431EE42E850E40E94CD0C0E94FD09FA
:100A50007B0100E010E01092240310922503109215
:100A60002603109227031092200310922103109264
:100A70002203109223038091240390912503A091D7
:100A80002603B09127032091200330912103409148
:100A90002203509123038E159F05A007B10728F468
:100AA0002E153F054007510730F31F910F91FF901E
:100AB000EF900895A0E0B0E0BC01CD010E945B0E74
:100AC00025EE30ED4AEA50E40E94CD0C0E94FD096B
:100AD0009B01AC011092240310922503109226036F
:100AE000109227038091240390912503A09126035F
:100AF000B0912703281739074A075B0798F782B197
:100B0000807F82B9089522B1207F266022B90E9499
:100B10005A05089522B1207F296022B90E945A0502
:100B2000089522B1207F256022B90E9416050895FC
:100B300022B1207F2A6022B90E941605089522B1B1
:100B4000207F246022B9880F991F0E9416050895FE
:100B500022B1207F226022B9880F991F0E941605BA
:100B6000089522B1207F216022B9880F991F0E9429
:100B70001605089522B1207F286022B9880F991F99
:100B80000E941605089580E00E94AE0490E0A0E067
:100B9000B0E0BC01CD010E945B0E60933403709302
:100BA0003503809336039093370380E00E94AE04B0
:100BB00094E6899FC0011124AA2797FDA095BA2F1A
:100BC000BC01CD010E94A90D2DE335ED41EA5DE3A5
:100BD0000E94D30B23E333E343E35FE30E94A60BBE
:100BE00060934003709341038093420390934303C7
:100BF0000E94FD099B01AC0181E061E0A90124E0B4
:100C000030E00E948B01089583E00E94AE0480933F
:100C10001B0382E00E94AE0480931C0381E00E94CB
:100C2000AE0480931D0340911B0381E061E050E01E
:100C300023E030E00E948B0140911C0381E065E0DD
:100C400050E023E030E00E948B0140911D0381E0E1
:100C500069E050E023E030E00E948B01089590911C
:100C60001C03913290F080911B03803270F48091CC
:100C70001D03803250F482E88093280180932A017A
:100C800082E061E042E850E010C080911B038132B5
:100C9000C8F09032B8F489E68093280182E8809306
:100CA0002A0182E061E049E650E023E030E00E9462
:100CB0008B0182E065E042E850E023E030E00E94F2
:100CC0008B01089580911D038132C0F09032B0F401
:100CD00082E88093280189E680932A0182E061E01E
:100CE00042E850E023E030E00E948B0182E065E0C2
:100CF00049E650E023E030E00E948B0108958091A6
:100D00001B03813220F480911D038132F8F0809121
:100D10001C038132D8F086B1886088B988EE93E0F0
:100D200020E731E0F9013197F1F70197D9F786B162
:100D3000877F88B988EE93E020E731E0F9013197A9
:100D4000F1F70197D9F721E030E002C020E030E070
:100D5000C901089582E390E00E94830582B1807FFB
:100D600082B982B1807F856082B980ED97E020E70B
:100D700031E0F9013197F1F70197D9F70E940406A4
:100D800006C00E94040682B1807F856082B980918E
:100D90001B038034B0F382B1807F82B980ED97E08D
:100DA00020E731E0F9013197F1F70197D9F70E9477
:100DB000040682B1807F866082B9089582E390E064
:100DC0000E94830582B1807F82B982B1807F8A6070
:100DD00082B980ED97E020E731E0F9013197F1F732
:100DE0000197D9F70E94040606C00E94040682B14A
:100DF000807F8A6082B980911D038034B0F382B114
:100E0000807F82B980ED97E020E731E0F9013197EA
:100E1000F1F70197D9F70E94040682B1807F8660BE
:100E200082B90895F8946C98749A6D98759AF894AC
:100E3000EAE6F0E0808182608083EC9A7894F8940E
:100E4000EAE6F0E0808188608083ED9A7894789477
:100E5000089587B1876F87B988B1807888B910BA4B
:100E600011BA109207011092080181B18F6081B907
:100E700082B1807F82B9EAE0F1E08081886180837D
:100E8000EBE0F1E08081886180833B9A43986C9825
:100E9000749A6D98759A0895F8940E942907EAE764
:100EA000F0E0108210927B0080E280937C0080E86A
:100EB00080BF86E88083E1E2F1E010829FEF9093AB
:100EC000250181E08093240110922901909328014B
:100ED00010922B0190932A0110922D0190932C01D6
:100EE00089EA809320018BE08083F894EAE6F0E0C1
:100EF000808182608083EC9A7894F894EAE6F0E04E
:100F0000808188608083ED9A7894789481E08093E2
:100F10003D0308958331910569F18431910524F4ED
:100F2000419709F04FC00BC08431910569F0499792
:100F300009F048C044C00E9404060E942F060E9487
:100F40007F06892BC1F7089581E090E090932903F3
:100F500080932803809108029091090285319105C0
:100F600039F187319105F9F088319105B1F0469753
:100F700049F50DC081E090E090932B0380932A0304
:100F800080910802909109028531910519F487E159
:100F900090E010C08731910519F486E190E00AC015
:100FA0008831910519F485E190E004C0469751F429
:100FB00088E190E09093090280930802089582B13D
:100FC000807F82B9089582B1807F82B90E94040631
:100FD00080911C03813228F48AE090E00E94910500
:100FE000F2CF089582B1807F82B90E940406809179
:100FF0001C03813228F48AE090E00E949805F2CF29
:1010000008951F93CF93DF930E944C070E9412070D
:101010000E94D6000E94290182B1807F866082B939
:1010200082E88093280180932A0182E061E042E80F
:1010300050E023E030E00E948B0182E065E042E86E
:1010400050E023E030E00E948B0140911E0350915C
:101050001F0382E069E022E030E00E948B014091B2
:1010600008025091090282E06DE023E030E00E9426
:101070008B0112E80E9404060E942F060E947F0640
:10108000892B09F48BC00E94040680911E03909165
:101090001F03FC01EE0FFF1FE050FE4FC081D18106
:1010A000019690931F0380931E03C131D10519F45B
:1010B0008AE090E005C0C431D10529F48BE090E0CE
:1010C0000E94780268C0C331D10519F48CE090E029
:1010D000F7CFC931D10509F05EC082B1807F82B9F6
:1010E00086B1886088B988EE93E020E731E0F901A5
:1010F0003197F1F70197D9F786B1877F88B988EEE4
:1011000093E020E731E0F9013197F1F70197D9F742
:1011100086B1886088B988EE93E020E731E0F90174
:101120003197F1F70197D9F786B1877F88B988EEB3
:1011300093E020E731E0F9013197F1F70197D9F712
:1011400086B1886088B988EE93E020E731E0F90144
:101150003197F1F70197D9F786B1877F88B988EE83
:1011600093E020E731E0F9013197F1F70197D9F7E2
:101170000E94D20290932D0380932C0382B1807F32
:10118000866082B982E88093280180932A01C0E0BA
:10119000D0E012E8A8C0CE010E948A0780912803FF
:1011A000909129030197C9F482E390E00E948A0597
:1011B00082B1807F82B982E390E00E9491050E9413
:1011C000E30782B1807F866082B910932801109373
:1011D0002A01109229031092280380912A039091EA
:1011E0002B03019709F046CF82E390E00E948A0525
:1011F00082B1807F82B982E390E00E9498050E94CC
:10120000F20782B1807F866082B910932801109323
:101210002A0110922B0310922A032CCF0E9404065D
:101220000E942F060E947F06892BF9F00E94040677
:10123000FE01EE0FFF1FE95BFC4F808191818B3037
:10124000910571F08C30910519F483E190E00AC0AA
:101250008D30910539F489E190E00E948A074BC0F6
:1012600084E190E021960E948A0780912803909162
:1012700029030197C9F482E390E00E948A0582B1B4
:10128000807F82B982E390E00E9491050E94E3078B
:1012900082B1807F866082B91093280110932A0161
:1012A000109229031092280380912A0390912B0316
:1012B0000197C9F482E390E00E948A0582B1807FA1
:1012C00082B982E390E00E9498050E94F20782B101
:1012D000807F866082B91093280110932A011092B2
:1012E0002B0310922A0380912C0390912D03C81791
:1012F000D90708F493CF86B1886088B988EE93E067
:1013000020E731E0F9013197F1F70197D9F786B17C
:10131000877F88B988EE93E020E731E0F9013197C3
:10132000F1F70197D9F786B1886088B988EE93E024
:1013300020E731E0F9013197F1F70197D9F786B14C
:10134000877F88B988EE93E020E731E0F901319793
:10135000F1F70197D9F786B1886088B988EE93E0F4
:1013600020E731E0F9013197F1F70197D9F786B11C
:10137000877F88B988EE93E020E731E0F901319763
:10138000F1F70197D9F780E090E0DF91CF911F91BD
:10139000089590E0A0E0B0E0BC01CD010E945B0E9A
:1013A0002FEE39EC43E95FE30E9414119B01AC017D
:1013B00060E070E080E89FE30E94CD0C2AE939EFFD
:1013C0004EE255E40E94D30B20E030E040E251E4CD
:1013D0000E94D30B0E94070E882777FD8095982FD7
:1013E0000E94A90D0E94070E9B0183E061327807DD
:1013F00010F020E233E0C9010895EF92FF920F93BD
:101400001F937B018C0120E030E040E05FE40E940C
:10141000790D88238CF0C801B70120E030E040E06E
:101420005FE40E94750B0E94070E9B01AC012050E7
:1014300030404040504806C0C801B7010E94070E26
:101440009B01AC01B901CA011F910F91FF90EF9070
:101450000895A0E0B0E0EFE2FAE00C94DD10DC01CA
:101460002B01FA019C91923008F439C1EB0188817B
:10147000823008F433C1943069F4843009F02FC10C
:1014800011969C9111978981981709F428C1AAE0B7
:10149000B2E025C1843009F421C18230A9F4923030
:1014A00009F01DC19A01AD0188E0EA010990AE0181
:1014B000E90109929E018150C1F7E20189811196EB
:1014C0009C918923818308C1923009F407C1129647
:1014D0002D903C901397EB018A819B811496AD90DF
:1014E000BD90CD90DC901797EC80FD800E811F8120
:1014F0009101281B390BB90137FF04C066277727F4
:10150000621B730B603271050CF061C0121613067A
:101510006CF537014801062E04C0969487947794A1
:1015200067940A94D2F721E030E040E050E004C034
:10153000220F331F441F551F6A95D2F721503040A8
:10154000404050402E213F21402351232115310599
:101550004105510521F021E030E040E050E0790103
:101560008A01E628F728082919293CC0232BD1F144
:10157000260E371E35014601062E04C09694879428
:10158000779467940A94D2F721E030E040E050E08D
:1015900004C0220F331F441F551F6A95D2F72150F4
:1015A0003040404050402A213B214C215D212115F3
:1015B00031054105510521F021E030E040E050E0E7
:1015C00059016A01A628B728C828D9280BC0821556
:1015D00093052CF01C01AA24BB24650103C0EE2452
:1015E000FF24870111969C91D20111968C91981736
:1015F00009F445C0992339F0A80197012A193B093C
:101600004C095D0906C0A60195012E193F09400B42
:10161000510B57FD08C01182338222822483358307
:10162000468357831DC081E08183338222828827CD
:101630009927DC01821B930BA40BB50B8483958344
:10164000A683B7830DC0220F331F441F551F248369
:101650003583468357838281938101979383828365
:101660002481358146815781DA01C9010197A10999
:10167000B1098F5F9F4FAF4FBF4328F30BC09183DA
:1016800033822282EA0CFB1C0C1D1D1DE482F582B4
:101690000683178383E080832481358146815781C7
:1016A00057FF1AC0C901AA2797FDA095BA2F8170CC
:1016B0009070A070B0705695479537952795822BFE
:1016C000932BA42BB52B84839583A683B783828128
:1016D0009381019693838283DF0101C0D201CD0102
:1016E000CDB7DEB7E2E10C94F910A0E2B0E0EBE791
:1016F000FBE00C94E91069837A838B839C832D83B0
:101700003E834F835887E9E0EE2EF12CEC0EFD1E50
:10171000CE010196B7010E94F80F8E010F5E1F4F98
:10172000CE010596B8010E94F80F8A8991E08927B9
:101730008A8BC701B801AE01475E5F4F0E94290A3C
:101740000E94230FA096E6E00C940511A0E2B0E001
:10175000ECEAFBE00C94E91069837A838B839C8329
:101760002D833E834F835887F9E0EF2EF12CEC0E4A
:10177000FD1ECE010196B7010E94F80F8E010F5E8B
:101780001F4FCE010596B8010E94F80FC701B8019E
:10179000AE01475E5F4F0E94290A0E94230FA09668
:1017A000E6E00C940511A0E2B0E0E9EDFBE00C945A
:1017B000DD1069837A838B839C832D833E834F83E3
:1017C0005887CE010196BE01675F7F4F0E94F80FD8
:1017D000CE010596BE016F5E7F4F0E94F80F99857E
:1017E000923088F089898230C8F0943019F48230C0
:1017F00051F404C0843029F4923081F48AE092E0FC
:10180000C6C0923049F420E09A858A89981321E075
:101810002A87CE010996BBC0823049F420E09A8520
:101820008A89981321E02A8BCE014196B0C02D847D
:101830003E844F8458886D887E888F88988CEE24EB
:10184000FF248701AA24BB24650140E050E060E04A
:1018500070E0E0E0F0E0C10181709070892BE9F068
:10186000E60CF71C081D191D9A01AB012A0D3B1D42
:101870004C1D5D1D80E090E0A0E0B0E0E614F704B0
:101880000805190520F481E090E0A0E0B0E0BA017D
:10189000A901480F591F6A1F7B1FAA0CBB1CCC1C37
:1018A000DD1C97FE08C081E090E0A0E0B0E0A82A2F
:1018B000B92ACA2ADB2A3196E032F10549F0660CD2
:1018C000771C881C991C5694479437942794C3CF4F
:1018D000FA85EA892B893C898B859C85280F391FDD
:1018E0002E5F3F4F17C0CA0181709070892B61F045
:1018F00016950795F794E79480E090E0A0E0B0E8B3
:10190000E82AF92A0A2B1B2B769567955795479558
:101910002F5F3F4F77FDE7CF0CC0440F551F661F69
:10192000771F17FD4160EE0CFF1C001F111F215097
:101930003040403090E0590790E0690790E4790723
:1019400060F32B8F3C8FDB01CA018F779070A07002
:10195000B07080349105A105B10561F447FD0AC05E
:10196000E114F1040105110529F0405C5F4F6F4F50
:101970007F4F40781A8EFE1711F081E08A8F4D8FCD
:101980005E8F6F8F78A383E0898FCE0149960E9486
:10199000230FA096E2E10C94F910A8E1B0E0E3ED8A
:1019A000FCE00C94E51069837A838B839C832D8300
:1019B0003E834F835887B9E0EB2EF12CEC0EFD1ED1
:1019C000CE010196B7010E94F80F8E010F5E1F4FE6
:1019D000CE010596B8010E94F80F2985223008F43F
:1019E0007EC03989323010F4B8017CC08A859A896A
:1019F00089278A87243011F0223031F4231709F027
:101A00006EC06AE072E06EC0343039F41D861E8606
:101A10001F86188A1C861B8604C0323021F484E09D
:101A20008987B7015FC02B853C858B899C89281BE2
:101A3000390B3C872B87ED84FE840F851889AD8890
:101A4000BE88CF88D88CEA14FB040C051D0540F431
:101A5000EE0CFF1C001F111F215030403C872B87CC
:101A600020E030E040E050E080E090E0A0E0B0E432
:101A700060E070E0EA14FB040C051D0540F0282B23
:101A8000392B4A2B5B2BEA18FB080C091D09B6956C
:101A9000A79597958795EE0CFF1C001F111F6F5F90
:101AA0007F4F6F31710531F7DA01C9018F7790707F
:101AB000A070B07080349105A105B10561F427FDD7
:101AC0000AC0E114F1040105110529F0205C3F4F23
:101AD0004F4F5F4F20782D873E874F87588BBE0131
:101AE000675F7F4FCB010E94230F6896EAE00C945A
:101AF0000111A8E1B0E0EFE7FDE00C94E910698383
:101B00007A838B839C832D833E834F83588789E020
:101B1000E82EF12CEC0EFD1ECE010196B7010E94BD
:101B2000F80F8E010F5E1F4FCE010596B8010E947F
:101B3000F80F8985823040F08989823028F0C7010A
:101B4000B8010E94701001C08FEF6896E6E00C9417
:101B50000511A8E0B0E0EFEAFDE00C94E6109B016F
:101B6000AC0183E08983DA01C9018827B7FD839539
:101B70009927AA27BB27B82E211531054105510504
:101B800019F482E089833AC08823A9F0203080E0EC
:101B9000380780E0480780E8580729F460E070E0E3
:101BA00080E09FEC30C0EE24FF248701E21AF30AA4
:101BB000040B150B02C079018A018EE1C82ED12CCD
:101BC000DC82CB82ED82FE820F831887C801B701C9
:101BD0000E94D40E01971816190684F4082E04C02A
:101BE000EE0CFF1C001F111F0A94D2F7ED82FE823B
:101BF0000F831887C81AD90ADC82CB82BA82CE0139
:101C000001960E94230F2896E9E00C940211ACE0A3
:101C1000B0E0EDE0FEE00C94ED1069837A838B83F5
:101C20009C83CE010196BE016B5F7F4F0E94F80F2F
:101C30008D81823061F1823050F1843021F48E81C7
:101C4000882351F12EC02F81388537FD20C06E8149
:101C50002F3131051CF06623F9F023C08EE190E0AE
:101C6000821B930B29853A854B855C8504C056956C
:101C70004795379527958A95D2F76623B1F0509509
:101C80004095309521953F4F4F4F5F4F0EC020E05C
:101C900030E040E050E009C02FEF3FEF4FEF5FE74B
:101CA00004C020E030E040E050E8B901CA012C96C1
:101CB000E2E00C940911A8E0B0E0E1E6FEE00C944B
:101CC000E5107B018C01611571058105910519F401
:101CD00082E0898360C083E089838EE1C82ED12CA5
:101CE000DC82CB82ED82FE820F831887C801B701A8
:101CF0000E94D40EFC013197F7FF3BC02227332707
:101D00002E1B3F0B57016801022E04C0D694C794C6
:101D1000B794A7940A94D2F740E050E060E070E0F6
:101D200081E090E0A0E0B0E004C0880F991FAA1FF6
:101D3000BB1F2A95D2F70197A109B1098E219F21D6
:101D4000A023B1230097A105B10521F041E050E0A7
:101D500060E070E04A295B296C297D294D835E8310
:101D60006F8378878EE190E08E1B9F0B9C838B8323
:101D700012C0309781F00E2E04C0EE0CFF1C001F25
:101D8000111F0A94D2F7ED82FE820F831887CE1AB4
:101D9000DF0ADC82CB821A82CE0101960E94230FD9
:101DA0002896EAE00C940111EF92FF920F931F9393
:101DB0007B018C0180E0E81680E0F80681E00807EE
:101DC00080E0180788F48FEFE816F104010511058B
:101DD00031F028F088E090E0A0E0B0E017C080E0AB
:101DE00090E0A0E0B0E012C080E0E81680E0F806E5
:101DF00080E0080781E0180728F088E190E0A0E083
:101E0000B0E004C080E190E0A0E0B0E020E230E08B
:101E100040E050E0281B390B4A0B5B0B04C01695C1
:101E20000795F794E7948A95D2F7F701EE5EFD4F98
:101E30008081281B310941095109C9011F910F9166
:101E4000FF90EF900895DF92EF92FF920F931F9310
:101E5000FC01E480F58006811781D1808081823089
:101E600048F480E090E0A0E1B0E0E82AF92A0A2BEB
:101E70001B2BA5C0843009F49FC0823021F4EE24CE
:101E8000FF24870105C0E114F1040105110519F4CF
:101E9000E0E0F0E096C0628173819FEF62387907DD
:101EA0000CF05BC022E83FEF261B370B2A313105CF
:101EB0002CF020E030E040E050E02AC0B801A7015B
:101EC000022E04C076956795579547950A94D2F7E8
:101ED00081E090E0A0E0B0E004C0880F991FAA1F45
:101EE000BB1F2A95D2F70197A109B1098E219F2125
:101EF000A023B1230097A105B10521F081E090E076
:101F0000A0E0B0E09A01AB01282B392B4A2B5B2BC8
:101F1000DA01C9018F779070A070B070803491059C
:101F2000A105B10539F427FF09C0205C3F4F4F4F91
:101F30005F4F04C0215C3F4F4F4F5F4FE0E0F0E048
:101F40002030A0E03A07A0E04A07A0E45A0710F0CA
:101F5000E1E0F0E079018A0127C06038710564F59D
:101F6000FB01E158FF4FD801C7018F779070A07037
:101F7000B07080349105A105B10539F4E7FE0DC0BC
:101F800080E490E0A0E0B0E004C08FE390E0A0E047
:101F9000B0E0E80EF91E0A1F1B1F17FF05C01695BB
:101FA0000795F794E794319687E016950795F7948F
:101FB000E7948A95D1F705C0EE24FF248701EFEF5F
:101FC000F0E06E2F679566276795902F9F77D794DF
:101FD000DD24D7948E2F8695492F462B582F5D29C7
:101FE000B701CA011F910F91FF90EF90DF90089504
:101FF000FC01DB01408151812281622F6F7770E00B
:10200000221F2227221F9381892F880F822B282F9E
:1020100030E0991F9927991F11969C9311972115CC
:102020003105A9F5411551056105710511F482E0ED
:1020300037C082E89FEF13969C938E9312979A0174
:10204000AB0167E0220F331F441F551F6A95D1F77C
:1020500083E08C930DC0220F331F441F551F12962F
:102060008D919C911397019713969C938E93129741
:10207000203080E0380780E0480780E4580758F3B4
:1020800014962D933D934D935C93179708952F3F8E
:10209000310579F4411551056105710519F484E0A4
:1020A0008C93089564FF03C081E08C9312C01C924E
:1020B00010C02F57304013963C932E93129783E015
:1020C0008C9387E0440F551F661F771F8A95D1F7C1
:1020D000706414964D935D936D937C931797089558
:1020E0001F93DC01FB019C91923008F447C0808172
:1020F000823008F443C0943051F411961C9184301E
:1021000099F58181682F70E0611B71093FC08430AF
:1021100021F0923031F48230B9F18181882389F144
:102120002DC011961C9111978230F1F08181181702
:10213000D9F412962D913C91139782819381821745
:10214000930794F028173907BCF014968D919D9150
:102150000D90BC91A02D248135814681578128178F
:1021600039074A075B0718F4112341F00AC08217A8
:102170009307A407B50740F4112319F061E070E05C
:1021800005C06FEF7FEF02C060E070E0CB011F91F0
:102190000895AA1BBB1B51E107C0AA1FBB1FA617AE
:1021A000B70710F0A61BB70B881F991F5A95A9F700
:1021B00080959095BC01CD0108952F923F924F924A
:1021C0005F926F927F928F929F92AF92BF92CF92C7
:1021D000DF92EF92FF920F931F93CF93DF93CDB7D0
:1021E000DEB7CA1BDB0B0FB6F894DEBF0FBECDBF48
:1021F00019942A88398848885F846E847D848C8409
:102200009B84AA84B984C884DF80EE80FD800C8121
:102210001B81AA81B981CE0FD11D0FB6F894DEBF04
:102220000FBECDBFED010895FA01EE0FFF1F3096EE
:102230002105310599F16115710561F48038BFE31D
:102240009B0749F168949038810561F08038BFEFB1
:102250009B0741F0992342F5FF3FE1053105210538
:1022600011F1E8940894E795D901AA2329F4AB2F3A
:10227000BE2FF85FD0F310C0FF5F70F4A695E0F7B3
:10228000F73950F019F0FF3A38F49F779F930CD04C
:102290000F9007FC905808953EF049C060E070E050
:1022A00080E89FE308954FE79F775F934F933F93B5
:1022B0002F93D0D02F913F914F915F9174DA05C049
:1022C00019F40EF02EC07DC032C061D0C8F396382C
:1022D000C0F707F80F92E8942BE33AEA48EB5FE780
:1022E00038D10F920F920F924DB75EB70F92F2D086
:1022F000E4EEF0E01FD04F915F91EF91FF91E595F3
:10230000EE1FFF1F49F0FE57E0684427EE0F441F01
:10231000FA95E1F74195550B64D00F9007FE58C030
:10232000089597F99F6780E870E060E008959FEF57
:1023300080EC0895DF93CF931F930F93FF92EF925A
:10234000DF927B018C01689405C0DA2EEF01FFD08B
:10235000FE01E894A5912591359145915591AEF3F3
:10236000EF0159D1FE019701A801DA9479F7DF90C6
:10237000EF90FF900F911F91CF91DF91089557FD3E
:102380009058440F551F59F05F3F71F04795880FE3
:1023900097FB991F61F09F3F79F08795089512167A
:1023A00013061406551FF2CF4695F1DF08C0161626
:1023B00017061806991FF1CF8695710561050894D7
:1023C0000895E894BB2766277727CB0197F90895EE
:1023D0009B01AC0160E070E080E89FE3DECAA1CF22
:1023E0006DC1D5DFE8F39923D9F3940F511DBBF3E9
:1023F0009150504094F059F0882332F0660F771FC7
:10240000881F91505040C1F79E3F510544F7880FF7
:10241000911D9695879597F908955F3FACF0983E8A
:102420009CF0BB27869577956795B79508F4B160C2
:102430009395C1F7BB0F58F711F460FFE8CF6F5FBA
:102440007F4F8F4F9F4FE3CFBDCF0EF037C16FCF80
:10245000689467CF9CDFC8F39923D1F3C6F3DF9369
:10246000CF931F930F93FF92C92FDD2788232AF064
:102470002197660F771F881FDAF720E030E040E8E9
:102480005FEB9FE3883920F0803E30F021968F7714
:102490005DD9ECE0F1E003C059D9E9E3F1E04ADFAE
:1024A0008B01BE01EC01FB2E6F5771097595771FEB
:1024B000880B990B4EDB28E132E741E35FE347D01D
:1024C000AF2D9801AE01FF900F911F91CF91DF9139
:1024D000A2D010C1FA01DC01AA0FBB1F9B01AC0105
:1024E000BF5728F422273327442750781FC0B751FD
:1024F00088F4AB2F0024469537952795011CA395AA
:10250000D2F3002069F0220F331F441FB395DAF392
:102510000DD0EBC861307105A0E88A07B94630F4E8
:102520009B01AC016627772788279078309621F0A9
:1025300020833183428353830895CED028F0D3D0B3
:1025400018F0952309F0EDCEF2CE11243BCF17DF22
:10255000A0F3959FD1F3950F50E0551F629FF001B6
:10256000729FBB27F00DB11D639FAA27F00DB11D0F
:10257000AA1F649F6627B00DA11D661F829F222798
:10258000B00DA11D621F739FB00DA11D621F839F1F
:10259000A00D611D221F749F3327A00D611D231FF5
:1025A000849F600D211D822F762F6A2F11249F5743
:1025B00050408AF0E1F088234AF0EE0FFF1FBB1F66
:1025C000661F771F881F91505040A9F79E3F510505
:1025D00070F0A7CEF7CE5F3FECF3983EDCF3869524
:1025E00077956795B795F795E7959F5FC1F7FE2BB0
:1025F000880F911D9695879597F908956DD030F0C5
:1026000072D020F031F49F3F11F41EF490CE0EF4FE
:10261000E095E7FB86CEE92FB2DE80F3BA176207BA
:1026200073078407950718F071F49EF5CACE0EF46F
:10263000E0950B2EBA2FA02D0B01B90190010C01D2
:10264000CA01A0011124FF27591B99F0593F50F4EA
:10265000503E68F11A16F040A22F232F342F442742
:10266000585FF3CF469537952795A795F04053953A
:10267000C9F77EF41F16BA0B620B730B840BBAF00A
:102680009150A1F0FF0FBB1F661F771F881FC2F775
:102690000EC0BA0F621F731F841F48F48795779589
:1026A0006795B795F7959E3F08F0B3CF9395880F40
:1026B00008F09927EE0F9795879508959F3F31F081
:1026C000915020F4879577956795B795880F911D60
:1026D0009695879597F9089500240A94161617067B
:1026E00018060906089500240A9412161306140603
:1026F00005060895092E0394000C11F4882352F066
:10270000BB0F40F4BF2B11F460FF04C06F5F7F4F1D
:0A2710008F4F9F4F0895F894FFCFFC
:10271A00110013001100190015000000000000004C
:10272A000000000102020303030304040404040476
:10273A000404050505050505050505050505050541
:10274A000505060606060606060606060606060621
:10275A00060606060606060606060606060606060F
:10276A0006060707070707070707070707070707F1
:10277A0007070707070707070707070707070707DF
:10278A0007070707070707070707070707070707CF
:10279A0007070707070707070707070707070707BF
:1027AA0007070808080808080808080808080808A1
:1027BA00080808080808080808080808080808088F
:1027CA00080808080808080808080808080808087F
:1027DA00080808080808080808080808080808086F
:1027EA00080808080808080808080808080808085F
:1027FA00080808080808080808080808080808084F
:10280A00080808080808080808080808080808083E
:10281A00080808080808080808080808080808082E
:02282A0008089C
:00000001FF
